{"abi":[{"type":"constructor","inputs":[],"stateMutability":"nonpayable"},{"type":"function","name":"callback_icp","inputs":[{"name":"result","type":"uint256","internalType":"uint256"},{"name":"job_id","type":"uint256","internalType":"uint256"}],"outputs":[],"stateMutability":"nonpayable"},{"type":"function","name":"getResult","inputs":[{"name":"_job_id","type":"uint256","internalType":"uint256"}],"outputs":[{"name":"","type":"uint256","internalType":"uint256"}],"stateMutability":"view"},{"type":"function","name":"jobs","inputs":[{"name":"","type":"uint256","internalType":"uint256"}],"outputs":[{"name":"","type":"uint256","internalType":"uint256"}],"stateMutability":"view"},{"type":"function","name":"newJob","inputs":[],"outputs":[{"name":"","type":"uint256","internalType":"uint256"}],"stateMutability":"payable"},{"type":"function","name":"updateCoprocessor","inputs":[{"name":"_coprocessor","type":"address","internalType":"address"}],"outputs":[],"stateMutability":"nonpayable"},{"type":"event","name":"NewJob","inputs":[{"name":"job_id","type":"uint256","indexed":true,"internalType":"uint256"}],"anonymous":false}],"bytecode":{"object":"0x60806040525f8055348015610012575f80fd5b503360015f6101000a81548173ffffffffffffffffffffffffffffffffffffffff021916908373ffffffffffffffffffffffffffffffffffffffff1602179055506106d1806100605f395ff3fe608060405260043610610049575f3560e01c806310d9e8cf1461004d578063180aedf3146100755780632a0c422d146100b1578063995e4339146100cf578063ed88b1041461010b575b5f80fd5b348015610058575f80fd5b50610073600480360381019061006e9190610432565b610133565b005b348015610080575f80fd5b5061009b60048036038101906100969190610490565b610205565b6040516100a891906104ca565b60405180910390f35b6100b961021a565b6040516100c691906104ca565b60405180910390f35b3480156100da575f80fd5b506100f560048036038101906100f09190610490565b610311565b60405161010291906104ca565b60405180910390f35b348015610116575f80fd5b50610131600480360381019061012c91906104e3565b61032b565b005b60015f9054906101000a900473ffffffffffffffffffffffffffffffffffffffff1673ffffffffffffffffffffffffffffffffffffffff163373ffffffffffffffffffffffffffffffffffffffff16146101c2576040517f08c379a00000000000000000000000000000000000000000000000000000000081526004016101b9906105a1565b60405180910390fd5b8060015f6101000a81548173ffffffffffffffffffffffffffffffffffffffff021916908373ffffffffffffffffffffffffffffffffffffffff16021790555050565b6002602052805f5260405f205f915090505481565b5f662386f26fc10000341015610265576040517f08c379a000000000000000000000000000000000000000000000000000000000815260040161025c90610609565b60405180910390fd5b60015f9054906101000a900473ffffffffffffffffffffffffffffffffffffffff1673ffffffffffffffffffffffffffffffffffffffff166108fc3490811502906040515f60405180830381858888f193505050501580156102c9573d5f803e3d5ffd5b505f547f031ada964b8e520743eb9508d0ace62654b126430b7e5a92b42e78eebb61602e60405160405180910390a25f8081548092919061030990610654565b919050555090565b5f60025f8381526020019081526020015f20549050919050565b60015f9054906101000a900473ffffffffffffffffffffffffffffffffffffffff1673ffffffffffffffffffffffffffffffffffffffff163373ffffffffffffffffffffffffffffffffffffffff16146103ba576040517f08c379a00000000000000000000000000000000000000000000000000000000081526004016103b1906105a1565b60405180910390fd5b8160025f8381526020019081526020015f20819055505050565b5f80fd5b5f73ffffffffffffffffffffffffffffffffffffffff82169050919050565b5f610401826103d8565b9050919050565b610411816103f7565b811461041b575f80fd5b50565b5f8135905061042c81610408565b92915050565b5f60208284031215610447576104466103d4565b5b5f6104548482850161041e565b91505092915050565b5f819050919050565b61046f8161045d565b8114610479575f80fd5b50565b5f8135905061048a81610466565b92915050565b5f602082840312156104a5576104a46103d4565b5b5f6104b28482850161047c565b91505092915050565b6104c48161045d565b82525050565b5f6020820190506104dd5f8301846104bb565b92915050565b5f80604083850312156104f9576104f86103d4565b5b5f6105068582860161047c565b92505060206105178582860161047c565b9150509250929050565b5f82825260208201905092915050565b7f4f6e6c792074686520636f70726f636573736f722063616e2063616c6c2074685f8201527f69732066756e6374696f6e000000000000000000000000000000000000000000602082015250565b5f61058b602b83610521565b915061059682610531565b604082019050919050565b5f6020820190508181035f8301526105b88161057f565b9050919050565b7f4d696e696d756d20302e303120455448206e6f74206d657400000000000000005f82015250565b5f6105f3601883610521565b91506105fe826105bf565b602082019050919050565b5f6020820190508181035f830152610620816105e7565b9050919050565b7f4e487b71000000000000000000000000000000000000000000000000000000005f52601160045260245ffd5b5f61065e8261045d565b91507fffffffffffffffffffffffffffffffffffffffffffffffffffffffffffffffff82036106905761068f610627565b5b60018201905091905056fea2646970667358221220b1aa376853e5cb594206dd25d617487be59e2b148f20b9815cd0c58f4fc76dfe64736f6c63430008140033","linkReferences":{}},"methodIdentifiers":{"callback_icp(uint256,uint256)":"ed88b104","getResult(uint256)":"995e4339","jobs(uint256)":"180aedf3","newJob()":"2a0c422d","updateCoprocessor(address)":"10d9e8cf"},"id":16}