{"abi":[{"type":"constructor","inputs":[],"stateMutability":"nonpayable"},{"type":"function","name":"callback_icp","inputs":[{"name":"result","type":"uint256","internalType":"uint256"},{"name":"_job_id","type":"uint256","internalType":"uint256"}],"outputs":[],"stateMutability":"nonpayable"},{"type":"function","name":"getResult","inputs":[{"name":"_job_id","type":"uint256","internalType":"uint256"}],"outputs":[{"name":"","type":"uint256","internalType":"uint256"}],"stateMutability":"view"},{"type":"function","name":"jobs","inputs":[{"name":"","type":"uint256","internalType":"uint256"}],"outputs":[{"name":"","type":"uint256","internalType":"uint256"}],"stateMutability":"view"},{"type":"function","name":"newJob","inputs":[],"outputs":[{"name":"","type":"uint256","internalType":"uint256"}],"stateMutability":"payable"},{"type":"function","name":"updateCoprocessor","inputs":[{"name":"_coprocessor","type":"address","internalType":"address"}],"outputs":[],"stateMutability":"nonpayable"},{"type":"event","name":"NewJob","inputs":[{"name":"job_id","type":"uint256","indexed":true,"internalType":"uint256"}],"anonymous":false}],"bytecode":{"object":"0x60806040525f8055348015610012575f80fd5b503360015f6101000a81548173ffffffffffffffffffffffffffffffffffffffff021916908373ffffffffffffffffffffffffffffffffffffffff160217905550610714806100605f395ff3fe608060405260043610610049575f3560e01c806310d9e8cf1461004d578063180aedf3146100755780632a0c422d146100b1578063995e4339146100cf578063ed88b1041461010b575b5f80fd5b348015610058575f80fd5b50610073600480360381019061006e9190610442565b610133565b005b348015610080575f80fd5b5061009b600480360381019061009691906104a0565b610205565b6040516100a891906104da565b60405180910390f35b6100b961021a565b6040516100c691906104da565b60405180910390f35b3480156100da575f80fd5b506100f560048036038101906100f091906104a0565b610321565b60405161010291906104da565b60405180910390f35b348015610116575f80fd5b50610131600480360381019061012c91906104f3565b61033b565b005b60015f9054906101000a900473ffffffffffffffffffffffffffffffffffffffff1673ffffffffffffffffffffffffffffffffffffffff163373ffffffffffffffffffffffffffffffffffffffff16146101c2576040517f08c379a00000000000000000000000000000000000000000000000000000000081526004016101b9906105b1565b60405180910390fd5b8060015f6101000a81548173ffffffffffffffffffffffffffffffffffffffff021916908373ffffffffffffffffffffffffffffffffffffffff16021790555050565b6002602052805f5260405f205f915090505481565b5f662386f26fc10000341015610265576040517f08c379a000000000000000000000000000000000000000000000000000000000815260040161025c90610619565b60405180910390fd5b60015f9054906101000a900473ffffffffffffffffffffffffffffffffffffffff1673ffffffffffffffffffffffffffffffffffffffff166108fc3490811502906040515f60405180830381858888f193505050501580156102c9573d5f803e3d5ffd5b505f547f031ada964b8e520743eb9508d0ace62654b126430b7e5a92b42e78eebb61602e60405160405180910390a25f8081548092919061030990610664565b919050555060015f5461031c91906106ab565b905090565b5f60025f8381526020019081526020015f20549050919050565b60015f9054906101000a900473ffffffffffffffffffffffffffffffffffffffff1673ffffffffffffffffffffffffffffffffffffffff163373ffffffffffffffffffffffffffffffffffffffff16146103ca576040517f08c379a00000000000000000000000000000000000000000000000000000000081526004016103c1906105b1565b60405180910390fd5b8160025f8381526020019081526020015f20819055505050565b5f80fd5b5f73ffffffffffffffffffffffffffffffffffffffff82169050919050565b5f610411826103e8565b9050919050565b61042181610407565b811461042b575f80fd5b50565b5f8135905061043c81610418565b92915050565b5f60208284031215610457576104566103e4565b5b5f6104648482850161042e565b91505092915050565b5f819050919050565b61047f8161046d565b8114610489575f80fd5b50565b5f8135905061049a81610476565b92915050565b5f602082840312156104b5576104b46103e4565b5b5f6104c28482850161048c565b91505092915050565b6104d48161046d565b82525050565b5f6020820190506104ed5f8301846104cb565b92915050565b5f8060408385031215610509576105086103e4565b5b5f6105168582860161048c565b92505060206105278582860161048c565b9150509250929050565b5f82825260208201905092915050565b7f4f6e6c792074686520636f70726f636573736f722063616e2063616c6c2074685f8201527f69732066756e6374696f6e000000000000000000000000000000000000000000602082015250565b5f61059b602b83610531565b91506105a682610541565b604082019050919050565b5f6020820190508181035f8301526105c88161058f565b9050919050565b7f4d696e696d756d20302e303120455448206e6f74206d657400000000000000005f82015250565b5f610603601883610531565b915061060e826105cf565b602082019050919050565b5f6020820190508181035f830152610630816105f7565b9050919050565b7f4e487b71000000000000000000000000000000000000000000000000000000005f52601160045260245ffd5b5f61066e8261046d565b91507fffffffffffffffffffffffffffffffffffffffffffffffffffffffffffffffff82036106a05761069f610637565b5b600182019050919050565b5f6106b58261046d565b91506106c08361046d565b92508282039050818111156106d8576106d7610637565b5b9291505056fea2646970667358221220ed7922c97cdd1631d9185297e3130c4b3cf17ba0312fe48a98d185df1ee10e1664736f6c63430008140033","linkReferences":{}},"methodIdentifiers":{"callback_icp(uint256,uint256)":"ed88b104","getResult(uint256)":"995e4339","jobs(uint256)":"180aedf3","newJob()":"2a0c422d","updateCoprocessor(address)":"10d9e8cf"},"id":16}